{
  "_format": "hh-sol-artifact-1",
  "contractName": "DiversifyToken",
  "sourceName": "contracts/DiversifyToken.sol",
  "abi": [
    {
      "anonymous": false,
      "inputs": [
        {
          "indexed": true,
          "internalType": "address",
          "name": "owner",
          "type": "address"
        },
        {
          "indexed": true,
          "internalType": "address",
          "name": "spender",
          "type": "address"
        },
        {
          "indexed": false,
          "internalType": "uint256",
          "name": "value",
          "type": "uint256"
        }
      ],
      "name": "Approval",
      "type": "event"
    },
    {
      "anonymous": false,
      "inputs": [
        {
          "indexed": true,
          "internalType": "uint256",
          "name": "previousRate",
          "type": "uint256"
        },
        {
          "indexed": true,
          "internalType": "uint256",
          "name": "newRate",
          "type": "uint256"
        }
      ],
      "name": "FoundationRateChanged",
      "type": "event"
    },
    {
      "anonymous": false,
      "inputs": [
        {
          "indexed": true,
          "internalType": "address",
          "name": "previousOwner",
          "type": "address"
        },
        {
          "indexed": true,
          "internalType": "address",
          "name": "newOwner",
          "type": "address"
        }
      ],
      "name": "FoundationWalletChanged",
      "type": "event"
    },
    {
      "anonymous": false,
      "inputs": [
        {
          "indexed": true,
          "internalType": "address",
          "name": "previousOwner",
          "type": "address"
        },
        {
          "indexed": true,
          "internalType": "address",
          "name": "newOwner",
          "type": "address"
        }
      ],
      "name": "OwnershipTransferred",
      "type": "event"
    },
    {
      "anonymous": false,
      "inputs": [
        {
          "indexed": true,
          "internalType": "address",
          "name": "from",
          "type": "address"
        },
        {
          "indexed": true,
          "internalType": "address",
          "name": "to",
          "type": "address"
        },
        {
          "indexed": false,
          "internalType": "uint256",
          "name": "value",
          "type": "uint256"
        }
      ],
      "name": "Transfer",
      "type": "event"
    },
    {
      "inputs": [
        {
          "internalType": "address",
          "name": "owner",
          "type": "address"
        },
        {
          "internalType": "address",
          "name": "spender",
          "type": "address"
        }
      ],
      "name": "allowance",
      "outputs": [
        {
          "internalType": "uint256",
          "name": "",
          "type": "uint256"
        }
      ],
      "stateMutability": "view",
      "type": "function"
    },
    {
      "inputs": [
        {
          "internalType": "address",
          "name": "spender",
          "type": "address"
        },
        {
          "internalType": "uint256",
          "name": "amount",
          "type": "uint256"
        }
      ],
      "name": "approve",
      "outputs": [
        {
          "internalType": "bool",
          "name": "",
          "type": "bool"
        }
      ],
      "stateMutability": "nonpayable",
      "type": "function"
    },
    {
      "inputs": [
        {
          "internalType": "address",
          "name": "account",
          "type": "address"
        }
      ],
      "name": "balanceOf",
      "outputs": [
        {
          "internalType": "uint256",
          "name": "",
          "type": "uint256"
        }
      ],
      "stateMutability": "view",
      "type": "function"
    },
    {
      "inputs": [],
      "name": "decimals",
      "outputs": [
        {
          "internalType": "uint8",
          "name": "",
          "type": "uint8"
        }
      ],
      "stateMutability": "view",
      "type": "function"
    },
    {
      "inputs": [
        {
          "internalType": "address",
          "name": "spender",
          "type": "address"
        },
        {
          "internalType": "uint256",
          "name": "subtractedValue",
          "type": "uint256"
        }
      ],
      "name": "decreaseAllowance",
      "outputs": [
        {
          "internalType": "bool",
          "name": "",
          "type": "bool"
        }
      ],
      "stateMutability": "nonpayable",
      "type": "function"
    },
    {
      "inputs": [],
      "name": "foundationRate",
      "outputs": [
        {
          "internalType": "uint256",
          "name": "",
          "type": "uint256"
        }
      ],
      "stateMutability": "view",
      "type": "function"
    },
    {
      "inputs": [],
      "name": "foundationWallet",
      "outputs": [
        {
          "internalType": "address",
          "name": "",
          "type": "address"
        }
      ],
      "stateMutability": "view",
      "type": "function"
    },
    {
      "inputs": [
        {
          "internalType": "address",
          "name": "spender",
          "type": "address"
        },
        {
          "internalType": "uint256",
          "name": "addedValue",
          "type": "uint256"
        }
      ],
      "name": "increaseAllowance",
      "outputs": [
        {
          "internalType": "bool",
          "name": "",
          "type": "bool"
        }
      ],
      "stateMutability": "nonpayable",
      "type": "function"
    },
    {
      "inputs": [
        {
          "internalType": "address",
          "name": "fWallet",
          "type": "address"
        }
      ],
      "name": "initialize",
      "outputs": [],
      "stateMutability": "nonpayable",
      "type": "function"
    },
    {
      "inputs": [],
      "name": "name",
      "outputs": [
        {
          "internalType": "string",
          "name": "",
          "type": "string"
        }
      ],
      "stateMutability": "view",
      "type": "function"
    },
    {
      "inputs": [],
      "name": "owner",
      "outputs": [
        {
          "internalType": "address",
          "name": "",
          "type": "address"
        }
      ],
      "stateMutability": "view",
      "type": "function"
    },
    {
      "inputs": [],
      "name": "renounceOwnership",
      "outputs": [],
      "stateMutability": "nonpayable",
      "type": "function"
    },
    {
      "inputs": [
        {
          "internalType": "uint256",
          "name": "newRate",
          "type": "uint256"
        }
      ],
      "name": "setFoundationRate",
      "outputs": [],
      "stateMutability": "nonpayable",
      "type": "function"
    },
    {
      "inputs": [
        {
          "internalType": "address",
          "name": "newFoundationWallet",
          "type": "address"
        }
      ],
      "name": "setFoundationWallet",
      "outputs": [],
      "stateMutability": "nonpayable",
      "type": "function"
    },
    {
      "inputs": [],
      "name": "symbol",
      "outputs": [
        {
          "internalType": "string",
          "name": "",
          "type": "string"
        }
      ],
      "stateMutability": "view",
      "type": "function"
    },
    {
      "inputs": [],
      "name": "totalSupply",
      "outputs": [
        {
          "internalType": "uint256",
          "name": "",
          "type": "uint256"
        }
      ],
      "stateMutability": "view",
      "type": "function"
    },
    {
      "inputs": [
        {
          "internalType": "address",
          "name": "recipient",
          "type": "address"
        },
        {
          "internalType": "uint256",
          "name": "amount",
          "type": "uint256"
        }
      ],
      "name": "transfer",
      "outputs": [
        {
          "internalType": "bool",
          "name": "",
          "type": "bool"
        }
      ],
      "stateMutability": "nonpayable",
      "type": "function"
    },
    {
      "inputs": [
        {
          "internalType": "address",
          "name": "sender",
          "type": "address"
        },
        {
          "internalType": "address",
          "name": "recipient",
          "type": "address"
        },
        {
          "internalType": "uint256",
          "name": "amount",
          "type": "uint256"
        }
      ],
      "name": "transferFrom",
      "outputs": [
        {
          "internalType": "bool",
          "name": "",
          "type": "bool"
        }
      ],
      "stateMutability": "nonpayable",
      "type": "function"
    },
    {
      "inputs": [
        {
          "internalType": "address",
          "name": "newOwner",
          "type": "address"
        }
      ],
      "name": "transferOwnership",
      "outputs": [],
      "stateMutability": "nonpayable",
      "type": "function"
    }
  ],
  "bytecode": "0x608060405234801561001057600080fd5b50611765806100206000396000f3fe608060405234801561001057600080fd5b50600436106101515760003560e01c806370a08231116100cd578063a9059cbb11610081578063dd62ed3e11610066578063dd62ed3e146102a3578063e026b721146102dc578063f2fde38b146102ef57600080fd5b8063a9059cbb1461027d578063c4d66de81461029057600080fd5b80638da5cb5b116100b25780638da5cb5b1461025157806395d89b4114610262578063a457c2d71461026a57600080fd5b806370a0823114610220578063715018a61461024957600080fd5b806323b872dd11610124578063395093511161010957806339509351146101e0578063455ab41e146101f35780636b7ae8dc146101fb57600080fd5b806323b872dd146101be578063313ce567146101d157600080fd5b8063015493b41461015657806306fdde031461016b578063095ea7b31461018957806318160ddd146101ac575b600080fd5b610169610164366004611489565b610302565b005b6101736103c0565b6040516101809190611558565b60405180910390f35b61019c610197366004611517565b610452565b6040519015158152602001610180565b6035545b604051908152602001610180565b61019c6101cc3660046114dc565b610469565b60405160128152602001610180565b61019c6101ee366004611517565b610528565b6098546101b0565b6097546001600160a01b03165b6040516001600160a01b039091168152602001610180565b6101b061022e366004611489565b6001600160a01b031660009081526033602052604090205490565b610169610564565b6065546001600160a01b0316610208565b6101736105ca565b61019c610278366004611517565b6105d9565b61019c61028b366004611517565b61068a565b61016961029e366004611489565b610697565b6101b06102b13660046114aa565b6001600160a01b03918216600090815260346020908152604080832093909416825291909152205490565b6101696102ea366004611540565b6107fd565b6101696102fd366004611489565b610890565b6065546001600160a01b031633146103615760405162461bcd60e51b815260206004820181905260248201527f4f776e61626c653a2063616c6c6572206973206e6f7420746865206f776e657260448201526064015b60405180910390fd5b609780546001600160a01b0383811673ffffffffffffffffffffffffffffffffffffffff19831681179093556040519116919082907f8b66c989cb300896792fb7684918b60f028fe0368d1ef77dd94a374af17656e790600090a35050565b6060603680546103cf90611707565b80601f01602080910402602001604051908101604052809291908181526020018280546103fb90611707565b80156104485780601f1061041d57610100808354040283529160200191610448565b820191906000526020600020905b81548152906001019060200180831161042b57829003601f168201915b5050505050905090565b600061045f338484610972565b5060015b92915050565b6000610476848484610a96565b6001600160a01b0384166000908152603460209081526040808320338452909152902054828110156105105760405162461bcd60e51b815260206004820152602860248201527f45524332303a207472616e7366657220616d6f756e742065786365656473206160448201527f6c6c6f77616e63650000000000000000000000000000000000000000000000006064820152608401610358565b61051d8533858403610972565b506001949350505050565b3360008181526034602090815260408083206001600160a01b0387168452909152812054909161045f91859061055f9086906115ab565b610972565b6065546001600160a01b031633146105be5760405162461bcd60e51b815260206004820181905260248201527f4f776e61626c653a2063616c6c6572206973206e6f7420746865206f776e65726044820152606401610358565b6105c86000610adf565b565b6060603780546103cf90611707565b3360009081526034602090815260408083206001600160a01b0386168452909152812054828110156106735760405162461bcd60e51b815260206004820152602560248201527f45524332303a2064656372656173656420616c6c6f77616e63652062656c6f7760448201527f207a65726f0000000000000000000000000000000000000000000000000000006064820152608401610358565b6106803385858403610972565b5060019392505050565b600061045f338484610a96565b600054610100900460ff16806106b0575060005460ff16155b6107135760405162461bcd60e51b815260206004820152602e60248201527f496e697469616c697a61626c653a20636f6e747261637420697320616c72656160448201526d191e481a5b9a5d1a585b1a5e995960921b6064820152608401610358565b600054610100900460ff16158015610735576000805461ffff19166101011790555b61078f6040518060400160405280600981526020017f4469766572736966790000000000000000000000000000000000000000000000815250604051806040016040528060038152602001622224ab60e91b815250610b3e565b610797610c05565b6107ba336107a76012600a611626565b6107b590633b9aca006116d1565b610cc7565b60196098556097805473ffffffffffffffffffffffffffffffffffffffff19166001600160a01b03841617905580156107f9576000805461ff00191690555b5050565b6065546001600160a01b031633146108575760405162461bcd60e51b815260206004820181905260248201527f4f776e61626c653a2063616c6c6572206973206e6f7420746865206f776e65726044820152606401610358565b6098805490829055604051829082907fbcf1ede18aeb939f4fbb920d551aff7d60bc391c16fab4676efb8ac246a87f2f90600090a35050565b6065546001600160a01b031633146108ea5760405162461bcd60e51b815260206004820181905260248201527f4f776e61626c653a2063616c6c6572206973206e6f7420746865206f776e65726044820152606401610358565b6001600160a01b0381166109665760405162461bcd60e51b815260206004820152602660248201527f4f776e61626c653a206e6577206f776e657220697320746865207a65726f206160448201527f64647265737300000000000000000000000000000000000000000000000000006064820152608401610358565b61096f81610adf565b50565b6001600160a01b0383166109d45760405162461bcd60e51b8152602060048201526024808201527f45524332303a20617070726f76652066726f6d20746865207a65726f206164646044820152637265737360e01b6064820152608401610358565b6001600160a01b038216610a355760405162461bcd60e51b815260206004820152602260248201527f45524332303a20617070726f766520746f20746865207a65726f206164647265604482015261737360f01b6064820152608401610358565b6001600160a01b0383811660008181526034602090815260408083209487168084529482529182902085905590518481527f8c5be1e5ebec7d5bd14f71427d1e84f3dd0314c0f7b2291e5b200ac8c7c3b925910160405180910390a3505050565b6000806000610aa484610da6565b925092509250610ab48682610e54565b609754610acc9087906001600160a01b031684610fa2565b610ad7868685610fa2565b505050505050565b606580546001600160a01b0383811673ffffffffffffffffffffffffffffffffffffffff19831681179093556040519116919082907f8be0079c531659141344cd1fd0a4f28419497f9722a3daafe3b4186f6b6457e090600090a35050565b600054610100900460ff1680610b57575060005460ff16155b610bba5760405162461bcd60e51b815260206004820152602e60248201527f496e697469616c697a61626c653a20636f6e747261637420697320616c72656160448201526d191e481a5b9a5d1a585b1a5e995960921b6064820152608401610358565b600054610100900460ff16158015610bdc576000805461ffff19166101011790555b610be46111a0565b610bee8383611251565b8015610c00576000805461ff00191690555b505050565b600054610100900460ff1680610c1e575060005460ff16155b610c815760405162461bcd60e51b815260206004820152602e60248201527f496e697469616c697a61626c653a20636f6e747261637420697320616c72656160448201526d191e481a5b9a5d1a585b1a5e995960921b6064820152608401610358565b600054610100900460ff16158015610ca3576000805461ffff19166101011790555b610cab6111a0565b610cb361132d565b801561096f576000805461ff001916905550565b6001600160a01b038216610d1d5760405162461bcd60e51b815260206004820152601f60248201527f45524332303a206d696e7420746f20746865207a65726f2061646472657373006044820152606401610358565b8060356000828254610d2f91906115ab565b90915550506001600160a01b03821660009081526033602052604081208054839290610d5c9084906115ab565b90915550506040518181526001600160a01b038316906000907fddf252ad1be2c89b69c2b068fc378daa952ba7f163c4a11628f55a4df523b3ef9060200160405180910390a35050565b600080808381806a52b7d2dcc80cd2e4000000610dc260355490565b1115610e1557610dd36064886115c3565b9150610dea826a52b7d2dcc80cd2e40000006115ab565b6035541015610e15576a52b7d2dcc80cd2e4000000610e0860355490565b610e1291906116f0565b91505b61271060985488610e2691906116d1565b610e3091906115c3565b905081610e3d82856116f0565b610e4791906116f0565b9790965090945092505050565b6001600160a01b038216610eb45760405162461bcd60e51b815260206004820152602160248201527f45524332303a206275726e2066726f6d20746865207a65726f206164647265736044820152607360f81b6064820152608401610358565b6001600160a01b03821660009081526033602052604090205481811015610f285760405162461bcd60e51b815260206004820152602260248201527f45524332303a206275726e20616d6f756e7420657863656564732062616c616e604482015261636560f01b6064820152608401610358565b6001600160a01b0383166000908152603360205260408120838303905560358054849290610f579084906116f0565b90915550506040518281526000906001600160a01b038516907fddf252ad1be2c89b69c2b068fc378daa952ba7f163c4a11628f55a4df523b3ef9060200160405180910390a3505050565b6001600160a01b03831661101e5760405162461bcd60e51b815260206004820152602560248201527f45524332303a207472616e736665722066726f6d20746865207a65726f20616460448201527f64726573730000000000000000000000000000000000000000000000000000006064820152608401610358565b6001600160a01b0382166110805760405162461bcd60e51b815260206004820152602360248201527f45524332303a207472616e7366657220746f20746865207a65726f206164647260448201526265737360e81b6064820152608401610358565b6001600160a01b0383166000908152603360205260409020548181101561110f5760405162461bcd60e51b815260206004820152602660248201527f45524332303a207472616e7366657220616d6f756e742065786365656473206260448201527f616c616e636500000000000000000000000000000000000000000000000000006064820152608401610358565b6001600160a01b038085166000908152603360205260408082208585039055918516815290812080548492906111469084906115ab565b92505081905550826001600160a01b0316846001600160a01b03167fddf252ad1be2c89b69c2b068fc378daa952ba7f163c4a11628f55a4df523b3ef8460405161119291815260200190565b60405180910390a350505050565b600054610100900460ff16806111b9575060005460ff16155b61121c5760405162461bcd60e51b815260206004820152602e60248201527f496e697469616c697a61626c653a20636f6e747261637420697320616c72656160448201526d191e481a5b9a5d1a585b1a5e995960921b6064820152608401610358565b600054610100900460ff16158015610cb3576000805461ffff1916610101179055801561096f576000805461ff001916905550565b600054610100900460ff168061126a575060005460ff16155b6112cd5760405162461bcd60e51b815260206004820152602e60248201527f496e697469616c697a61626c653a20636f6e747261637420697320616c72656160448201526d191e481a5b9a5d1a585b1a5e995960921b6064820152608401610358565b600054610100900460ff161580156112ef576000805461ffff19166101011790555b82516113029060369060208601906113d4565b5081516113169060379060208501906113d4565b508015610c00576000805461ff0019169055505050565b600054610100900460ff1680611346575060005460ff16155b6113a95760405162461bcd60e51b815260206004820152602e60248201527f496e697469616c697a61626c653a20636f6e747261637420697320616c72656160448201526d191e481a5b9a5d1a585b1a5e995960921b6064820152608401610358565b600054610100900460ff161580156113cb576000805461ffff19166101011790555b610cb333610adf565b8280546113e090611707565b90600052602060002090601f0160209004810192826114025760008555611448565b82601f1061141b57805160ff1916838001178555611448565b82800160010185558215611448579182015b8281111561144857825182559160200191906001019061142d565b50611454929150611458565b5090565b5b808211156114545760008155600101611459565b80356001600160a01b038116811461148457600080fd5b919050565b60006020828403121561149a578081fd5b6114a38261146d565b9392505050565b600080604083850312156114bc578081fd5b6114c58361146d565b91506114d36020840161146d565b90509250929050565b6000806000606084860312156114f0578081fd5b6114f98461146d565b92506115076020850161146d565b9150604084013590509250925092565b60008060408385031215611529578182fd5b6115328361146d565b946020939093013593505050565b600060208284031215611551578081fd5b5035919050565b6000602080835283518082850152825b8181101561158457858101830151858201604001528201611568565b818111156115955783604083870101525b50601f01601f1916929092016040019392505050565b600082198211156115be576115be611742565b500190565b6000826115de57634e487b7160e01b81526012600452602481fd5b500490565b600181815b8085111561161e57816000190482111561160457611604611742565b8085161561161157918102915b93841c93908002906115e8565b509250929050565b60006114a360ff84168360008261163f57506001610463565b8161164c57506000610463565b8160018114611662576002811461166c57611688565b6001915050610463565b60ff84111561167d5761167d611742565b50506001821b610463565b5060208310610133831016604e8410600b84101617156116ab575081810a610463565b6116b583836115e3565b80600019048211156116c9576116c9611742565b029392505050565b60008160001904831182151516156116eb576116eb611742565b500290565b60008282101561170257611702611742565b500390565b600181811c9082168061171b57607f821691505b6020821081141561173c57634e487b7160e01b600052602260045260246000fd5b50919050565b634e487b7160e01b600052601160045260246000fdfea164736f6c6343000804000a",
  "linkReferences": {},
  "deployedLinkReferences": {}
}