{
  "_format": "hh-sol-artifact-1",
  "contractName": "DiversifyToken",
  "sourceName": "contracts/DiversifyToken.sol",
  "abi": [
    {
      "anonymous": false,
      "inputs": [
        {
          "indexed": true,
          "internalType": "address",
          "name": "owner",
          "type": "address"
        },
        {
          "indexed": true,
          "internalType": "address",
          "name": "spender",
          "type": "address"
        },
        {
          "indexed": false,
          "internalType": "uint256",
          "name": "value",
          "type": "uint256"
        }
      ],
      "name": "Approval",
      "type": "event"
    },
    {
      "anonymous": false,
      "inputs": [
        {
          "indexed": true,
          "internalType": "address",
          "name": "previousOwner",
          "type": "address"
        },
        {
          "indexed": true,
          "internalType": "address",
          "name": "newOwner",
          "type": "address"
        }
      ],
      "name": "FoundationWalletTransfered",
      "type": "event"
    },
    {
      "anonymous": false,
      "inputs": [
        {
          "indexed": true,
          "internalType": "address",
          "name": "previousOwner",
          "type": "address"
        },
        {
          "indexed": true,
          "internalType": "address",
          "name": "newOwner",
          "type": "address"
        }
      ],
      "name": "OwnershipTransferred",
      "type": "event"
    },
    {
      "anonymous": false,
      "inputs": [
        {
          "indexed": true,
          "internalType": "address",
          "name": "from",
          "type": "address"
        },
        {
          "indexed": true,
          "internalType": "address",
          "name": "to",
          "type": "address"
        },
        {
          "indexed": false,
          "internalType": "uint256",
          "name": "value",
          "type": "uint256"
        }
      ],
      "name": "Transfer",
      "type": "event"
    },
    {
      "inputs": [
        {
          "internalType": "address",
          "name": "owner",
          "type": "address"
        },
        {
          "internalType": "address",
          "name": "spender",
          "type": "address"
        }
      ],
      "name": "allowance",
      "outputs": [
        {
          "internalType": "uint256",
          "name": "",
          "type": "uint256"
        }
      ],
      "stateMutability": "view",
      "type": "function"
    },
    {
      "inputs": [
        {
          "internalType": "address",
          "name": "spender",
          "type": "address"
        },
        {
          "internalType": "uint256",
          "name": "amount",
          "type": "uint256"
        }
      ],
      "name": "approve",
      "outputs": [
        {
          "internalType": "bool",
          "name": "",
          "type": "bool"
        }
      ],
      "stateMutability": "nonpayable",
      "type": "function"
    },
    {
      "inputs": [
        {
          "internalType": "address",
          "name": "account",
          "type": "address"
        }
      ],
      "name": "balanceOf",
      "outputs": [
        {
          "internalType": "uint256",
          "name": "",
          "type": "uint256"
        }
      ],
      "stateMutability": "view",
      "type": "function"
    },
    {
      "inputs": [],
      "name": "decimals",
      "outputs": [
        {
          "internalType": "uint8",
          "name": "",
          "type": "uint8"
        }
      ],
      "stateMutability": "view",
      "type": "function"
    },
    {
      "inputs": [
        {
          "internalType": "address",
          "name": "spender",
          "type": "address"
        },
        {
          "internalType": "uint256",
          "name": "subtractedValue",
          "type": "uint256"
        }
      ],
      "name": "decreaseAllowance",
      "outputs": [
        {
          "internalType": "bool",
          "name": "",
          "type": "bool"
        }
      ],
      "stateMutability": "nonpayable",
      "type": "function"
    },
    {
      "inputs": [],
      "name": "foundationWallet",
      "outputs": [
        {
          "internalType": "address",
          "name": "",
          "type": "address"
        }
      ],
      "stateMutability": "view",
      "type": "function"
    },
    {
      "inputs": [
        {
          "internalType": "address",
          "name": "spender",
          "type": "address"
        },
        {
          "internalType": "uint256",
          "name": "addedValue",
          "type": "uint256"
        }
      ],
      "name": "increaseAllowance",
      "outputs": [
        {
          "internalType": "bool",
          "name": "",
          "type": "bool"
        }
      ],
      "stateMutability": "nonpayable",
      "type": "function"
    },
    {
      "inputs": [],
      "name": "initialize",
      "outputs": [],
      "stateMutability": "nonpayable",
      "type": "function"
    },
    {
      "inputs": [],
      "name": "name",
      "outputs": [
        {
          "internalType": "string",
          "name": "",
          "type": "string"
        }
      ],
      "stateMutability": "view",
      "type": "function"
    },
    {
      "inputs": [],
      "name": "owner",
      "outputs": [
        {
          "internalType": "address",
          "name": "",
          "type": "address"
        }
      ],
      "stateMutability": "view",
      "type": "function"
    },
    {
      "inputs": [],
      "name": "renounceOwnership",
      "outputs": [],
      "stateMutability": "nonpayable",
      "type": "function"
    },
    {
      "inputs": [
        {
          "internalType": "address",
          "name": "newFoundationWallet",
          "type": "address"
        }
      ],
      "name": "setFoundationWallet",
      "outputs": [],
      "stateMutability": "nonpayable",
      "type": "function"
    },
    {
      "inputs": [],
      "name": "symbol",
      "outputs": [
        {
          "internalType": "string",
          "name": "",
          "type": "string"
        }
      ],
      "stateMutability": "view",
      "type": "function"
    },
    {
      "inputs": [],
      "name": "totalSupply",
      "outputs": [
        {
          "internalType": "uint256",
          "name": "",
          "type": "uint256"
        }
      ],
      "stateMutability": "view",
      "type": "function"
    },
    {
      "inputs": [
        {
          "internalType": "address",
          "name": "recipient",
          "type": "address"
        },
        {
          "internalType": "uint256",
          "name": "amount",
          "type": "uint256"
        }
      ],
      "name": "transfer",
      "outputs": [
        {
          "internalType": "bool",
          "name": "",
          "type": "bool"
        }
      ],
      "stateMutability": "nonpayable",
      "type": "function"
    },
    {
      "inputs": [
        {
          "internalType": "address",
          "name": "sender",
          "type": "address"
        },
        {
          "internalType": "address",
          "name": "recipient",
          "type": "address"
        },
        {
          "internalType": "uint256",
          "name": "amount",
          "type": "uint256"
        }
      ],
      "name": "transferFrom",
      "outputs": [
        {
          "internalType": "bool",
          "name": "",
          "type": "bool"
        }
      ],
      "stateMutability": "nonpayable",
      "type": "function"
    },
    {
      "inputs": [
        {
          "internalType": "address",
          "name": "newOwner",
          "type": "address"
        }
      ],
      "name": "transferOwnership",
      "outputs": [],
      "stateMutability": "nonpayable",
      "type": "function"
    }
  ],
  "bytecode": "0x608060405234801561001057600080fd5b506115d2806100206000396000f3fe608060405234801561001057600080fd5b506004361061011b5760003560e01c806370a08231116100b257806395d89b4111610081578063a9059cbb11610066578063a9059cbb14610247578063dd62ed3e1461025a578063f2fde38b1461029357600080fd5b806395d89b411461022c578063a457c2d71461023457600080fd5b806370a08231146101e2578063715018a61461020b5780638129fc1c146102135780638da5cb5b1461021b57600080fd5b806323b872dd116100ee57806323b872dd14610188578063313ce5671461019b57806339509351146101aa5780636b7ae8dc146101bd57600080fd5b8063015493b41461012057806306fdde0314610135578063095ea7b31461015357806318160ddd14610176575b600080fd5b61013361012e36600461130e565b6102a6565b005b61013d610362565b60405161014a91906113c5565b60405180910390f35b61016661016136600461139c565b6103f4565b604051901515815260200161014a565b6035545b60405190815260200161014a565b610166610196366004611361565b61040b565b6040516012815260200161014a565b6101666101b836600461139c565b6104ca565b6097546001600160a01b03165b6040516001600160a01b03909116815260200161014a565b61017a6101f036600461130e565b6001600160a01b031660009081526033602052604090205490565b610133610506565b61013361056c565b6065546001600160a01b03166101ca565b61013d6106a4565b61016661024236600461139c565b6106b3565b61016661025536600461139c565b610764565b61017a61026836600461132f565b6001600160a01b03918216600090815260346020908152604080832093909416825291909152205490565b6101336102a136600461130e565b610771565b6065546001600160a01b031633146103055760405162461bcd60e51b815260206004820181905260248201527f4f776e61626c653a2063616c6c6572206973206e6f7420746865206f776e657260448201526064015b60405180910390fd5b6097805473ffffffffffffffffffffffffffffffffffffffff19166001600160a01b03831690811790915560405182919081907f483773f46ad95b3f05701779de2ba5e0c5b16eec3f9a9326de142c106d6108d490600090a35050565b60606036805461037190611574565b80601f016020809104026020016040519081016040528092919081815260200182805461039d90611574565b80156103ea5780601f106103bf576101008083540402835291602001916103ea565b820191906000526020600020905b8154815290600101906020018083116103cd57829003601f168201915b5050505050905090565b6000610401338484610850565b5060015b92915050565b6000610418848484610974565b6001600160a01b0384166000908152603460209081526040808320338452909152902054828110156104b25760405162461bcd60e51b815260206004820152602860248201527f45524332303a207472616e7366657220616d6f756e742065786365656473206160448201527f6c6c6f77616e636500000000000000000000000000000000000000000000000060648201526084016102fc565b6104bf8533858403610850565b506001949350505050565b3360008181526034602090815260408083206001600160a01b03871684529091528120549091610401918590610501908690611418565b610850565b6065546001600160a01b031633146105605760405162461bcd60e51b815260206004820181905260248201527f4f776e61626c653a2063616c6c6572206973206e6f7420746865206f776e657260448201526064016102fc565b61056a60006109a0565b565b600054610100900460ff1680610585575060005460ff16155b6105e85760405162461bcd60e51b815260206004820152602e60248201527f496e697469616c697a61626c653a20636f6e747261637420697320616c72656160448201526d191e481a5b9a5d1a585b1a5e995960921b60648201526084016102fc565b600054610100900460ff1615801561060a576000805461ffff19166101011790555b6106646040518060400160405280600981526020017f4469766572736966790000000000000000000000000000000000000000000000815250604051806040016040528060038152602001622224ab60e91b8152506109ff565b61066c610ac6565b61068f3361067c6012600a611493565b61068a90633b9aca0061153e565b610b74565b80156106a1576000805461ff00191690555b50565b60606037805461037190611574565b3360009081526034602090815260408083206001600160a01b03861684529091528120548281101561074d5760405162461bcd60e51b815260206004820152602560248201527f45524332303a2064656372656173656420616c6c6f77616e63652062656c6f7760448201527f207a65726f00000000000000000000000000000000000000000000000000000060648201526084016102fc565b61075a3385858403610850565b5060019392505050565b6000610401338484610974565b6065546001600160a01b031633146107cb5760405162461bcd60e51b815260206004820181905260248201527f4f776e61626c653a2063616c6c6572206973206e6f7420746865206f776e657260448201526064016102fc565b6001600160a01b0381166108475760405162461bcd60e51b815260206004820152602660248201527f4f776e61626c653a206e6577206f776e657220697320746865207a65726f206160448201527f646472657373000000000000000000000000000000000000000000000000000060648201526084016102fc565b6106a1816109a0565b6001600160a01b0383166108b25760405162461bcd60e51b8152602060048201526024808201527f45524332303a20617070726f76652066726f6d20746865207a65726f206164646044820152637265737360e01b60648201526084016102fc565b6001600160a01b0382166109135760405162461bcd60e51b815260206004820152602260248201527f45524332303a20617070726f766520746f20746865207a65726f206164647265604482015261737360f01b60648201526084016102fc565b6001600160a01b0383811660008181526034602090815260408083209487168084529482529182902085905590518481527f8c5be1e5ebec7d5bd14f71427d1e84f3dd0314c0f7b2291e5b200ac8c7c3b925910160405180910390a3505050565b60008061098083610c53565b9150915061098e8582610cd9565b610999858584610e27565b5050505050565b606580546001600160a01b0383811673ffffffffffffffffffffffffffffffffffffffff19831681179093556040519116919082907f8be0079c531659141344cd1fd0a4f28419497f9722a3daafe3b4186f6b6457e090600090a35050565b600054610100900460ff1680610a18575060005460ff16155b610a7b5760405162461bcd60e51b815260206004820152602e60248201527f496e697469616c697a61626c653a20636f6e747261637420697320616c72656160448201526d191e481a5b9a5d1a585b1a5e995960921b60648201526084016102fc565b600054610100900460ff16158015610a9d576000805461ffff19166101011790555b610aa5611025565b610aaf83836110d6565b8015610ac1576000805461ff00191690555b505050565b600054610100900460ff1680610adf575060005460ff16155b610b425760405162461bcd60e51b815260206004820152602e60248201527f496e697469616c697a61626c653a20636f6e747261637420697320616c72656160448201526d191e481a5b9a5d1a585b1a5e995960921b60648201526084016102fc565b600054610100900460ff16158015610b64576000805461ffff19166101011790555b610b6c611025565b61068f6111b2565b6001600160a01b038216610bca5760405162461bcd60e51b815260206004820152601f60248201527f45524332303a206d696e7420746f20746865207a65726f20616464726573730060448201526064016102fc565b8060356000828254610bdc9190611418565b90915550506001600160a01b03821660009081526033602052604081208054839290610c09908490611418565b90915550506040518181526001600160a01b038316906000907fddf252ad1be2c89b69c2b068fc378daa952ba7f163c4a11628f55a4df523b3ef9060200160405180910390a35050565b6000808281806a52b7d2dcc80cd2e4000000610c6e60355490565b1115610cce57610c7f606487611430565b9150610c96826a52b7d2dcc80cd2e4000000611418565b6035541015610cc1576a52b7d2dcc80cd2e4000000610cb460355490565b610cbe919061155d565b91505b610ccb828461155d565b92505b509094909350915050565b6001600160a01b038216610d395760405162461bcd60e51b815260206004820152602160248201527f45524332303a206275726e2066726f6d20746865207a65726f206164647265736044820152607360f81b60648201526084016102fc565b6001600160a01b03821660009081526033602052604090205481811015610dad5760405162461bcd60e51b815260206004820152602260248201527f45524332303a206275726e20616d6f756e7420657863656564732062616c616e604482015261636560f01b60648201526084016102fc565b6001600160a01b0383166000908152603360205260408120838303905560358054849290610ddc90849061155d565b90915550506040518281526000906001600160a01b038516907fddf252ad1be2c89b69c2b068fc378daa952ba7f163c4a11628f55a4df523b3ef9060200160405180910390a3505050565b6001600160a01b038316610ea35760405162461bcd60e51b815260206004820152602560248201527f45524332303a207472616e736665722066726f6d20746865207a65726f20616460448201527f647265737300000000000000000000000000000000000000000000000000000060648201526084016102fc565b6001600160a01b038216610f055760405162461bcd60e51b815260206004820152602360248201527f45524332303a207472616e7366657220746f20746865207a65726f206164647260448201526265737360e81b60648201526084016102fc565b6001600160a01b03831660009081526033602052604090205481811015610f945760405162461bcd60e51b815260206004820152602660248201527f45524332303a207472616e7366657220616d6f756e742065786365656473206260448201527f616c616e6365000000000000000000000000000000000000000000000000000060648201526084016102fc565b6001600160a01b03808516600090815260336020526040808220858503905591851681529081208054849290610fcb908490611418565b92505081905550826001600160a01b0316846001600160a01b03167fddf252ad1be2c89b69c2b068fc378daa952ba7f163c4a11628f55a4df523b3ef8460405161101791815260200190565b60405180910390a350505050565b600054610100900460ff168061103e575060005460ff16155b6110a15760405162461bcd60e51b815260206004820152602e60248201527f496e697469616c697a61626c653a20636f6e747261637420697320616c72656160448201526d191e481a5b9a5d1a585b1a5e995960921b60648201526084016102fc565b600054610100900460ff1615801561068f576000805461ffff191661010117905580156106a1576000805461ff001916905550565b600054610100900460ff16806110ef575060005460ff16155b6111525760405162461bcd60e51b815260206004820152602e60248201527f496e697469616c697a61626c653a20636f6e747261637420697320616c72656160448201526d191e481a5b9a5d1a585b1a5e995960921b60648201526084016102fc565b600054610100900460ff16158015611174576000805461ffff19166101011790555b8251611187906036906020860190611259565b50815161119b906037906020850190611259565b508015610ac1576000805461ff0019169055505050565b600054610100900460ff16806111cb575060005460ff16155b61122e5760405162461bcd60e51b815260206004820152602e60248201527f496e697469616c697a61626c653a20636f6e747261637420697320616c72656160448201526d191e481a5b9a5d1a585b1a5e995960921b60648201526084016102fc565b600054610100900460ff16158015611250576000805461ffff19166101011790555b61068f336109a0565b82805461126590611574565b90600052602060002090601f01602090048101928261128757600085556112cd565b82601f106112a057805160ff19168380011785556112cd565b828001600101855582156112cd579182015b828111156112cd5782518255916020019190600101906112b2565b506112d99291506112dd565b5090565b5b808211156112d957600081556001016112de565b80356001600160a01b038116811461130957600080fd5b919050565b60006020828403121561131f578081fd5b611328826112f2565b9392505050565b60008060408385031215611341578081fd5b61134a836112f2565b9150611358602084016112f2565b90509250929050565b600080600060608486031215611375578081fd5b61137e846112f2565b925061138c602085016112f2565b9150604084013590509250925092565b600080604083850312156113ae578182fd5b6113b7836112f2565b946020939093013593505050565b6000602080835283518082850152825b818110156113f1578581018301518582016040015282016113d5565b818111156114025783604083870101525b50601f01601f1916929092016040019392505050565b6000821982111561142b5761142b6115af565b500190565b60008261144b57634e487b7160e01b81526012600452602481fd5b500490565b600181815b8085111561148b578160001904821115611471576114716115af565b8085161561147e57918102915b93841c9390800290611455565b509250929050565b600061132860ff8416836000826114ac57506001610405565b816114b957506000610405565b81600181146114cf57600281146114d9576114f5565b6001915050610405565b60ff8411156114ea576114ea6115af565b50506001821b610405565b5060208310610133831016604e8410600b8410161715611518575081810a610405565b6115228383611450565b8060001904821115611536576115366115af565b029392505050565b6000816000190483118215151615611558576115586115af565b500290565b60008282101561156f5761156f6115af565b500390565b600181811c9082168061158857607f821691505b602082108114156115a957634e487b7160e01b600052602260045260246000fd5b50919050565b634e487b7160e01b600052601160045260246000fdfea164736f6c6343000804000a",
  "linkReferences": {},
  "deployedLinkReferences": {}
}