{
  "_format": "hh-sol-artifact-1",
  "contractName": "DiversifyToken",
  "sourceName": "contracts/DiversifyToken.sol",
  "abi": [
    {
      "anonymous": false,
      "inputs": [
        {
          "indexed": true,
          "internalType": "address",
          "name": "owner",
          "type": "address"
        },
        {
          "indexed": true,
          "internalType": "address",
          "name": "spender",
          "type": "address"
        },
        {
          "indexed": false,
          "internalType": "uint256",
          "name": "value",
          "type": "uint256"
        }
      ],
      "name": "Approval",
      "type": "event"
    },
    {
      "anonymous": false,
      "inputs": [
        {
          "indexed": true,
          "internalType": "address",
          "name": "previousOwner",
          "type": "address"
        },
        {
          "indexed": true,
          "internalType": "address",
          "name": "newOwner",
          "type": "address"
        }
      ],
      "name": "OwnershipTransferred",
      "type": "event"
    },
    {
      "anonymous": false,
      "inputs": [
        {
          "indexed": true,
          "internalType": "address",
          "name": "from",
          "type": "address"
        },
        {
          "indexed": true,
          "internalType": "address",
          "name": "to",
          "type": "address"
        },
        {
          "indexed": false,
          "internalType": "uint256",
          "name": "value",
          "type": "uint256"
        }
      ],
      "name": "Transfer",
      "type": "event"
    },
    {
      "inputs": [
        {
          "internalType": "address",
          "name": "owner",
          "type": "address"
        },
        {
          "internalType": "address",
          "name": "spender",
          "type": "address"
        }
      ],
      "name": "allowance",
      "outputs": [
        {
          "internalType": "uint256",
          "name": "",
          "type": "uint256"
        }
      ],
      "stateMutability": "view",
      "type": "function"
    },
    {
      "inputs": [
        {
          "internalType": "address",
          "name": "spender",
          "type": "address"
        },
        {
          "internalType": "uint256",
          "name": "amount",
          "type": "uint256"
        }
      ],
      "name": "approve",
      "outputs": [
        {
          "internalType": "bool",
          "name": "",
          "type": "bool"
        }
      ],
      "stateMutability": "nonpayable",
      "type": "function"
    },
    {
      "inputs": [
        {
          "internalType": "address",
          "name": "account",
          "type": "address"
        }
      ],
      "name": "balanceOf",
      "outputs": [
        {
          "internalType": "uint256",
          "name": "",
          "type": "uint256"
        }
      ],
      "stateMutability": "view",
      "type": "function"
    },
    {
      "inputs": [],
      "name": "decimals",
      "outputs": [
        {
          "internalType": "uint8",
          "name": "",
          "type": "uint8"
        }
      ],
      "stateMutability": "view",
      "type": "function"
    },
    {
      "inputs": [
        {
          "internalType": "address",
          "name": "spender",
          "type": "address"
        },
        {
          "internalType": "uint256",
          "name": "subtractedValue",
          "type": "uint256"
        }
      ],
      "name": "decreaseAllowance",
      "outputs": [
        {
          "internalType": "bool",
          "name": "",
          "type": "bool"
        }
      ],
      "stateMutability": "nonpayable",
      "type": "function"
    },
    {
      "inputs": [
        {
          "internalType": "address",
          "name": "spender",
          "type": "address"
        },
        {
          "internalType": "uint256",
          "name": "addedValue",
          "type": "uint256"
        }
      ],
      "name": "increaseAllowance",
      "outputs": [
        {
          "internalType": "bool",
          "name": "",
          "type": "bool"
        }
      ],
      "stateMutability": "nonpayable",
      "type": "function"
    },
    {
      "inputs": [],
      "name": "initialize",
      "outputs": [],
      "stateMutability": "nonpayable",
      "type": "function"
    },
    {
      "inputs": [],
      "name": "name",
      "outputs": [
        {
          "internalType": "string",
          "name": "",
          "type": "string"
        }
      ],
      "stateMutability": "view",
      "type": "function"
    },
    {
      "inputs": [],
      "name": "owner",
      "outputs": [
        {
          "internalType": "address",
          "name": "",
          "type": "address"
        }
      ],
      "stateMutability": "view",
      "type": "function"
    },
    {
      "inputs": [],
      "name": "renounceOwnership",
      "outputs": [],
      "stateMutability": "nonpayable",
      "type": "function"
    },
    {
      "inputs": [],
      "name": "symbol",
      "outputs": [
        {
          "internalType": "string",
          "name": "",
          "type": "string"
        }
      ],
      "stateMutability": "view",
      "type": "function"
    },
    {
      "inputs": [],
      "name": "totalSupply",
      "outputs": [
        {
          "internalType": "uint256",
          "name": "",
          "type": "uint256"
        }
      ],
      "stateMutability": "view",
      "type": "function"
    },
    {
      "inputs": [
        {
          "internalType": "address",
          "name": "recipient",
          "type": "address"
        },
        {
          "internalType": "uint256",
          "name": "amount",
          "type": "uint256"
        }
      ],
      "name": "transfer",
      "outputs": [
        {
          "internalType": "bool",
          "name": "",
          "type": "bool"
        }
      ],
      "stateMutability": "nonpayable",
      "type": "function"
    },
    {
      "inputs": [
        {
          "internalType": "address",
          "name": "sender",
          "type": "address"
        },
        {
          "internalType": "address",
          "name": "recipient",
          "type": "address"
        },
        {
          "internalType": "uint256",
          "name": "amount",
          "type": "uint256"
        }
      ],
      "name": "transferFrom",
      "outputs": [
        {
          "internalType": "bool",
          "name": "",
          "type": "bool"
        }
      ],
      "stateMutability": "nonpayable",
      "type": "function"
    },
    {
      "inputs": [
        {
          "internalType": "address",
          "name": "newOwner",
          "type": "address"
        }
      ],
      "name": "transferOwnership",
      "outputs": [],
      "stateMutability": "nonpayable",
      "type": "function"
    }
  ],
  "bytecode": "0x608060405234801561001057600080fd5b50611554806100206000396000f3fe608060405234801561001057600080fd5b50600436106100f55760003560e01c8063715018a611610097578063a457c2d711610066578063a457c2d7146101e0578063a9059cbb146101f3578063dd62ed3e14610206578063f2fde38b1461023f57600080fd5b8063715018a6146101ab5780638129fc1c146101b55780638da5cb5b146101bd57806395d89b41146101d857600080fd5b806323b872dd116100d357806323b872dd1461014d578063313ce56714610160578063395093511461016f57806370a082311461018257600080fd5b806306fdde03146100fa578063095ea7b31461011857806318160ddd1461013b575b600080fd5b610102610252565b60405161010f9190611347565b60405180910390f35b61012b61012636600461131e565b6102e4565b604051901515815260200161010f565b6035545b60405190815260200161010f565b61012b61015b3660046112e3565b6102fb565b6040516012815260200161010f565b61012b61017d36600461131e565b6103bf565b61013f610190366004611290565b6001600160a01b031660009081526033602052604090205490565b6101b36103fb565b005b6101b3610461565b6065546040516001600160a01b03909116815260200161010f565b610102610599565b61012b6101ee36600461131e565b6105a8565b61012b61020136600461131e565b610659565b61013f6102143660046112b1565b6001600160a01b03918216600090815260346020908152604080832093909416825291909152205490565b6101b361024d366004611290565b610666565b606060368054610261906114f6565b80601f016020809104026020016040519081016040528092919081815260200182805461028d906114f6565b80156102da5780601f106102af576101008083540402835291602001916102da565b820191906000526020600020905b8154815290600101906020018083116102bd57829003601f168201915b5050505050905090565b60006102f1338484610745565b5060015b92915050565b6000610308848484610869565b6001600160a01b0384166000908152603460209081526040808320338452909152902054828110156103a75760405162461bcd60e51b815260206004820152602860248201527f45524332303a207472616e7366657220616d6f756e742065786365656473206160448201527f6c6c6f77616e636500000000000000000000000000000000000000000000000060648201526084015b60405180910390fd5b6103b48533858403610745565b506001949350505050565b3360008181526034602090815260408083206001600160a01b038716845290915281205490916102f19185906103f690869061139a565b610745565b6065546001600160a01b031633146104555760405162461bcd60e51b815260206004820181905260248201527f4f776e61626c653a2063616c6c6572206973206e6f7420746865206f776e6572604482015260640161039e565b61045f600061089e565b565b600054610100900460ff168061047a575060005460ff16155b6104dd5760405162461bcd60e51b815260206004820152602e60248201527f496e697469616c697a61626c653a20636f6e747261637420697320616c72656160448201526d191e481a5b9a5d1a585b1a5e995960921b606482015260840161039e565b600054610100900460ff161580156104ff576000805461ffff19166101011790555b6105596040518060400160405280600981526020017f4469766572736966790000000000000000000000000000000000000000000000815250604051806040016040528060038152602001622224ab60e91b815250610908565b6105616109cf565b610584336105716012600a611415565b61057f90633b9aca006114c0565b610a7d565b8015610596576000805461ff00191690555b50565b606060378054610261906114f6565b3360009081526034602090815260408083206001600160a01b0386168452909152812054828110156106425760405162461bcd60e51b815260206004820152602560248201527f45524332303a2064656372656173656420616c6c6f77616e63652062656c6f7760448201527f207a65726f000000000000000000000000000000000000000000000000000000606482015260840161039e565b61064f3385858403610745565b5060019392505050565b60006102f1338484610869565b6065546001600160a01b031633146106c05760405162461bcd60e51b815260206004820181905260248201527f4f776e61626c653a2063616c6c6572206973206e6f7420746865206f776e6572604482015260640161039e565b6001600160a01b03811661073c5760405162461bcd60e51b815260206004820152602660248201527f4f776e61626c653a206e6577206f776e657220697320746865207a65726f206160448201527f6464726573730000000000000000000000000000000000000000000000000000606482015260840161039e565b6105968161089e565b6001600160a01b0383166107a75760405162461bcd60e51b8152602060048201526024808201527f45524332303a20617070726f76652066726f6d20746865207a65726f206164646044820152637265737360e01b606482015260840161039e565b6001600160a01b0382166108085760405162461bcd60e51b815260206004820152602260248201527f45524332303a20617070726f766520746f20746865207a65726f206164647265604482015261737360f01b606482015260840161039e565b6001600160a01b0383811660008181526034602090815260408083209487168084529482529182902085905590518481527f8c5be1e5ebec7d5bd14f71427d1e84f3dd0314c0f7b2291e5b200ac8c7c3b925910160405180910390a3505050565b60008061087583610b5c565b9150915061088281610be0565b61088c8582610c3a565b610897858584610d88565b5050505050565b606580546001600160a01b038381167fffffffffffffffffffffffff0000000000000000000000000000000000000000831681179093556040519116919082907f8be0079c531659141344cd1fd0a4f28419497f9722a3daafe3b4186f6b6457e090600090a35050565b600054610100900460ff1680610921575060005460ff16155b6109845760405162461bcd60e51b815260206004820152602e60248201527f496e697469616c697a61626c653a20636f6e747261637420697320616c72656160448201526d191e481a5b9a5d1a585b1a5e995960921b606482015260840161039e565b600054610100900460ff161580156109a6576000805461ffff19166101011790555b6109ae610f86565b6109b88383611037565b80156109ca576000805461ff00191690555b505050565b600054610100900460ff16806109e8575060005460ff16155b610a4b5760405162461bcd60e51b815260206004820152602e60248201527f496e697469616c697a61626c653a20636f6e747261637420697320616c72656160448201526d191e481a5b9a5d1a585b1a5e995960921b606482015260840161039e565b600054610100900460ff16158015610a6d576000805461ffff19166101011790555b610a75610f86565b610584611113565b6001600160a01b038216610ad35760405162461bcd60e51b815260206004820152601f60248201527f45524332303a206d696e7420746f20746865207a65726f206164647265737300604482015260640161039e565b8060356000828254610ae5919061139a565b90915550506001600160a01b03821660009081526033602052604081208054839290610b1290849061139a565b90915550506040518181526001600160a01b038316906000907fddf252ad1be2c89b69c2b068fc378daa952ba7f163c4a11628f55a4df523b3ef9060200160405180910390a35050565b60008082816a52b7d2dcc80cd2e4000000610b7660355490565b1115610bd657610b876064866113b2565b9050610b9e816a52b7d2dcc80cd2e400000061139a565b6035541015610bc9576a52b7d2dcc80cd2e4000000610bbc60355490565b610bc691906114df565b90505b610bd381836114df565b91505b9094909350915050565b61059681604051602401610bf691815260200190565b60408051601f198184030181529190526020810180517bffffffffffffffffffffffffffffffffffffffffffffffffffffffff1663f5b1bba960e01b1790526111ba565b6001600160a01b038216610c9a5760405162461bcd60e51b815260206004820152602160248201527f45524332303a206275726e2066726f6d20746865207a65726f206164647265736044820152607360f81b606482015260840161039e565b6001600160a01b03821660009081526033602052604090205481811015610d0e5760405162461bcd60e51b815260206004820152602260248201527f45524332303a206275726e20616d6f756e7420657863656564732062616c616e604482015261636560f01b606482015260840161039e565b6001600160a01b0383166000908152603360205260408120838303905560358054849290610d3d9084906114df565b90915550506040518281526000906001600160a01b038516907fddf252ad1be2c89b69c2b068fc378daa952ba7f163c4a11628f55a4df523b3ef9060200160405180910390a3505050565b6001600160a01b038316610e045760405162461bcd60e51b815260206004820152602560248201527f45524332303a207472616e736665722066726f6d20746865207a65726f20616460448201527f6472657373000000000000000000000000000000000000000000000000000000606482015260840161039e565b6001600160a01b038216610e665760405162461bcd60e51b815260206004820152602360248201527f45524332303a207472616e7366657220746f20746865207a65726f206164647260448201526265737360e81b606482015260840161039e565b6001600160a01b03831660009081526033602052604090205481811015610ef55760405162461bcd60e51b815260206004820152602660248201527f45524332303a207472616e7366657220616d6f756e742065786365656473206260448201527f616c616e63650000000000000000000000000000000000000000000000000000606482015260840161039e565b6001600160a01b03808516600090815260336020526040808220858503905591851681529081208054849290610f2c90849061139a565b92505081905550826001600160a01b0316846001600160a01b03167fddf252ad1be2c89b69c2b068fc378daa952ba7f163c4a11628f55a4df523b3ef84604051610f7891815260200190565b60405180910390a350505050565b600054610100900460ff1680610f9f575060005460ff16155b6110025760405162461bcd60e51b815260206004820152602e60248201527f496e697469616c697a61626c653a20636f6e747261637420697320616c72656160448201526d191e481a5b9a5d1a585b1a5e995960921b606482015260840161039e565b600054610100900460ff16158015610584576000805461ffff19166101011790558015610596576000805461ff001916905550565b600054610100900460ff1680611050575060005460ff16155b6110b35760405162461bcd60e51b815260206004820152602e60248201527f496e697469616c697a61626c653a20636f6e747261637420697320616c72656160448201526d191e481a5b9a5d1a585b1a5e995960921b606482015260840161039e565b600054610100900460ff161580156110d5576000805461ffff19166101011790555b82516110e89060369060208601906111db565b5081516110fc9060379060208501906111db565b5080156109ca576000805461ff0019169055505050565b600054610100900460ff168061112c575060005460ff16155b61118f5760405162461bcd60e51b815260206004820152602e60248201527f496e697469616c697a61626c653a20636f6e747261637420697320616c72656160448201526d191e481a5b9a5d1a585b1a5e995960921b606482015260840161039e565b600054610100900460ff161580156111b1576000805461ffff19166101011790555b6105843361089e565b80516a636f6e736f6c652e6c6f67602083016000808483855afa5050505050565b8280546111e7906114f6565b90600052602060002090601f016020900481019282611209576000855561124f565b82601f1061122257805160ff191683800117855561124f565b8280016001018555821561124f579182015b8281111561124f578251825591602001919060010190611234565b5061125b92915061125f565b5090565b5b8082111561125b5760008155600101611260565b80356001600160a01b038116811461128b57600080fd5b919050565b6000602082840312156112a1578081fd5b6112aa82611274565b9392505050565b600080604083850312156112c3578081fd5b6112cc83611274565b91506112da60208401611274565b90509250929050565b6000806000606084860312156112f7578081fd5b61130084611274565b925061130e60208501611274565b9150604084013590509250925092565b60008060408385031215611330578182fd5b61133983611274565b946020939093013593505050565b6000602080835283518082850152825b8181101561137357858101830151858201604001528201611357565b818111156113845783604083870101525b50601f01601f1916929092016040019392505050565b600082198211156113ad576113ad611531565b500190565b6000826113cd57634e487b7160e01b81526012600452602481fd5b500490565b600181815b8085111561140d5781600019048211156113f3576113f3611531565b8085161561140057918102915b93841c93908002906113d7565b509250929050565b60006112aa60ff84168360008261142e575060016102f5565b8161143b575060006102f5565b8160018114611451576002811461145b57611477565b60019150506102f5565b60ff84111561146c5761146c611531565b50506001821b6102f5565b5060208310610133831016604e8410600b841016171561149a575081810a6102f5565b6114a483836113d2565b80600019048211156114b8576114b8611531565b029392505050565b60008160001904831182151516156114da576114da611531565b500290565b6000828210156114f1576114f1611531565b500390565b600181811c9082168061150a57607f821691505b6020821081141561152b57634e487b7160e01b600052602260045260246000fd5b50919050565b634e487b7160e01b600052601160045260246000fdfea164736f6c6343000804000a",
  "linkReferences": {},
  "deployedLinkReferences": {}
}