{
  "_format": "hh-sol-artifact-1",
  "contractName": "DiversifyToken",
  "sourceName": "contracts/DiversifyToken.sol",
  "abi": [
    {
      "anonymous": false,
      "inputs": [
        {
          "indexed": true,
          "internalType": "address",
          "name": "owner",
          "type": "address"
        },
        {
          "indexed": true,
          "internalType": "address",
          "name": "spender",
          "type": "address"
        },
        {
          "indexed": false,
          "internalType": "uint256",
          "name": "value",
          "type": "uint256"
        }
      ],
      "name": "Approval",
      "type": "event"
    },
    {
      "anonymous": false,
      "inputs": [
        {
          "indexed": true,
          "internalType": "address",
          "name": "previousOwner",
          "type": "address"
        },
        {
          "indexed": true,
          "internalType": "address",
          "name": "newOwner",
          "type": "address"
        }
      ],
      "name": "OwnershipTransferred",
      "type": "event"
    },
    {
      "anonymous": false,
      "inputs": [
        {
          "indexed": true,
          "internalType": "address",
          "name": "from",
          "type": "address"
        },
        {
          "indexed": true,
          "internalType": "address",
          "name": "to",
          "type": "address"
        },
        {
          "indexed": false,
          "internalType": "uint256",
          "name": "value",
          "type": "uint256"
        }
      ],
      "name": "Transfer",
      "type": "event"
    },
    {
      "inputs": [
        {
          "internalType": "address",
          "name": "owner",
          "type": "address"
        },
        {
          "internalType": "address",
          "name": "spender",
          "type": "address"
        }
      ],
      "name": "allowance",
      "outputs": [
        {
          "internalType": "uint256",
          "name": "",
          "type": "uint256"
        }
      ],
      "stateMutability": "view",
      "type": "function"
    },
    {
      "inputs": [
        {
          "internalType": "address",
          "name": "spender",
          "type": "address"
        },
        {
          "internalType": "uint256",
          "name": "amount",
          "type": "uint256"
        }
      ],
      "name": "approve",
      "outputs": [
        {
          "internalType": "bool",
          "name": "",
          "type": "bool"
        }
      ],
      "stateMutability": "nonpayable",
      "type": "function"
    },
    {
      "inputs": [
        {
          "internalType": "address",
          "name": "account",
          "type": "address"
        }
      ],
      "name": "balanceOf",
      "outputs": [
        {
          "internalType": "uint256",
          "name": "",
          "type": "uint256"
        }
      ],
      "stateMutability": "view",
      "type": "function"
    },
    {
      "inputs": [],
      "name": "decimals",
      "outputs": [
        {
          "internalType": "uint8",
          "name": "",
          "type": "uint8"
        }
      ],
      "stateMutability": "view",
      "type": "function"
    },
    {
      "inputs": [
        {
          "internalType": "address",
          "name": "spender",
          "type": "address"
        },
        {
          "internalType": "uint256",
          "name": "subtractedValue",
          "type": "uint256"
        }
      ],
      "name": "decreaseAllowance",
      "outputs": [
        {
          "internalType": "bool",
          "name": "",
          "type": "bool"
        }
      ],
      "stateMutability": "nonpayable",
      "type": "function"
    },
    {
      "inputs": [
        {
          "internalType": "address",
          "name": "spender",
          "type": "address"
        },
        {
          "internalType": "uint256",
          "name": "addedValue",
          "type": "uint256"
        }
      ],
      "name": "increaseAllowance",
      "outputs": [
        {
          "internalType": "bool",
          "name": "",
          "type": "bool"
        }
      ],
      "stateMutability": "nonpayable",
      "type": "function"
    },
    {
      "inputs": [],
      "name": "initialize",
      "outputs": [],
      "stateMutability": "nonpayable",
      "type": "function"
    },
    {
      "inputs": [],
      "name": "name",
      "outputs": [
        {
          "internalType": "string",
          "name": "",
          "type": "string"
        }
      ],
      "stateMutability": "view",
      "type": "function"
    },
    {
      "inputs": [],
      "name": "owner",
      "outputs": [
        {
          "internalType": "address",
          "name": "",
          "type": "address"
        }
      ],
      "stateMutability": "view",
      "type": "function"
    },
    {
      "inputs": [],
      "name": "renounceOwnership",
      "outputs": [],
      "stateMutability": "nonpayable",
      "type": "function"
    },
    {
      "inputs": [],
      "name": "symbol",
      "outputs": [
        {
          "internalType": "string",
          "name": "",
          "type": "string"
        }
      ],
      "stateMutability": "view",
      "type": "function"
    },
    {
      "inputs": [],
      "name": "totalSupply",
      "outputs": [
        {
          "internalType": "uint256",
          "name": "",
          "type": "uint256"
        }
      ],
      "stateMutability": "view",
      "type": "function"
    },
    {
      "inputs": [
        {
          "internalType": "address",
          "name": "recipient",
          "type": "address"
        },
        {
          "internalType": "uint256",
          "name": "amount",
          "type": "uint256"
        }
      ],
      "name": "transfer",
      "outputs": [
        {
          "internalType": "bool",
          "name": "",
          "type": "bool"
        }
      ],
      "stateMutability": "nonpayable",
      "type": "function"
    },
    {
      "inputs": [
        {
          "internalType": "address",
          "name": "sender",
          "type": "address"
        },
        {
          "internalType": "address",
          "name": "recipient",
          "type": "address"
        },
        {
          "internalType": "uint256",
          "name": "amount",
          "type": "uint256"
        }
      ],
      "name": "transferFrom",
      "outputs": [
        {
          "internalType": "bool",
          "name": "",
          "type": "bool"
        }
      ],
      "stateMutability": "nonpayable",
      "type": "function"
    },
    {
      "inputs": [
        {
          "internalType": "address",
          "name": "newOwner",
          "type": "address"
        }
      ],
      "name": "transferOwnership",
      "outputs": [],
      "stateMutability": "nonpayable",
      "type": "function"
    }
  ],
  "bytecode": "0x608060405234801561001057600080fd5b50612695806100206000396000f3fe608060405234801561001057600080fd5b50600436106100f55760003560e01c8063715018a611610097578063a457c2d711610066578063a457c2d714610264578063a9059cbb14610294578063dd62ed3e146102c4578063f2fde38b146102f4576100f5565b8063715018a6146102145780638129fc1c1461021e5780638da5cb5b1461022857806395d89b4114610246576100f5565b806323b872dd116100d357806323b872dd14610166578063313ce5671461019657806339509351146101b457806370a08231146101e4576100f5565b806306fdde03146100fa578063095ea7b31461011857806318160ddd14610148575b600080fd5b610102610310565b60405161010f9190611c7b565b60405180910390f35b610132600480360381019061012d91906119cd565b6103a2565b60405161013f9190611c60565b60405180910390f35b6101506103c0565b60405161015d9190611e3d565b60405180910390f35b610180600480360381019061017b919061197e565b6103ca565b60405161018d9190611c60565b60405180910390f35b61019e6104c2565b6040516101ab9190611e58565b60405180910390f35b6101ce60048036038101906101c991906119cd565b6104cb565b6040516101db9190611c60565b60405180910390f35b6101fe60048036038101906101f99190611919565b610577565b60405161020b9190611e3d565b60405180910390f35b61021c6105c0565b005b610226610648565b005b6102306107c9565b60405161023d9190611c45565b60405180910390f35b61024e6107f3565b60405161025b9190611c7b565b60405180910390f35b61027e600480360381019061027991906119cd565b610885565b60405161028b9190611c60565b60405180910390f35b6102ae60048036038101906102a991906119cd565b610970565b6040516102bb9190611c60565b60405180910390f35b6102de60048036038101906102d99190611942565b61098e565b6040516102eb9190611e3d565b60405180910390f35b61030e60048036038101906103099190611919565b610a15565b005b60606036805461031f9061219d565b80601f016020809104026020016040519081016040528092919081815260200182805461034b9061219d565b80156103985780601f1061036d57610100808354040283529160200191610398565b820191906000526020600020905b81548152906001019060200180831161037b57829003601f168201915b5050505050905090565b60006103b66103af610b0d565b8484610b15565b6001905092915050565b6000603554905090565b60006103d7848484610ce0565b6000603460008673ffffffffffffffffffffffffffffffffffffffff1673ffffffffffffffffffffffffffffffffffffffff1681526020019081526020016000206000610422610b0d565b73ffffffffffffffffffffffffffffffffffffffff1673ffffffffffffffffffffffffffffffffffffffff168152602001908152602001600020549050828110156104a2576040517f08c379a000000000000000000000000000000000000000000000000000000000815260040161049990611d5d565b60405180910390fd5b6104b6856104ae610b0d565b858403610b15565b60019150509392505050565b60006012905090565b600061056d6104d8610b0d565b8484603460006104e6610b0d565b73ffffffffffffffffffffffffffffffffffffffff1673ffffffffffffffffffffffffffffffffffffffff16815260200190815260200160002060008873ffffffffffffffffffffffffffffffffffffffff1673ffffffffffffffffffffffffffffffffffffffff168152602001908152602001600020546105689190611e8f565b610b15565b6001905092915050565b6000603360008373ffffffffffffffffffffffffffffffffffffffff1673ffffffffffffffffffffffffffffffffffffffff168152602001908152602001600020549050919050565b6105c8610b0d565b73ffffffffffffffffffffffffffffffffffffffff166105e66107c9565b73ffffffffffffffffffffffffffffffffffffffff161461063c576040517f08c379a000000000000000000000000000000000000000000000000000000000815260040161063390611d7d565b60405180910390fd5b6106466000610d1d565b565b600060019054906101000a900460ff168061066e575060008054906101000a900460ff16155b6106ad576040517f08c379a00000000000000000000000000000000000000000000000000000000081526004016106a490611d3d565b60405180910390fd5b60008060019054906101000a900460ff1615905080156106fd576001600060016101000a81548160ff02191690831515021790555060016000806101000a81548160ff0219169083151502179055505b6107716040518060400160405280600e81526020017f446976657273696679546f6b656e0000000000000000000000000000000000008152506040518060400160405280600381526020017f4449560000000000000000000000000000000000000000000000000000000000815250610de3565b610779610ed0565b6107a5336107856104c2565b600a6107919190611f69565b633b9aca006107a09190612087565b610fb9565b80156107c65760008060016101000a81548160ff0219169083151502179055505b50565b6000606560009054906101000a900473ffffffffffffffffffffffffffffffffffffffff16905090565b6060603780546108029061219d565b80601f016020809104026020016040519081016040528092919081815260200182805461082e9061219d565b801561087b5780601f106108505761010080835404028352916020019161087b565b820191906000526020600020905b81548152906001019060200180831161085e57829003601f168201915b5050505050905090565b60008060346000610894610b0d565b73ffffffffffffffffffffffffffffffffffffffff1673ffffffffffffffffffffffffffffffffffffffff16815260200190815260200160002060008573ffffffffffffffffffffffffffffffffffffffff1673ffffffffffffffffffffffffffffffffffffffff16815260200190815260200160002054905082811015610951576040517f08c379a000000000000000000000000000000000000000000000000000000000815260040161094890611dfd565b60405180910390fd5b61096561095c610b0d565b85858403610b15565b600191505092915050565b600061098461097d610b0d565b8484610ce0565b6001905092915050565b6000603460008473ffffffffffffffffffffffffffffffffffffffff1673ffffffffffffffffffffffffffffffffffffffff16815260200190815260200160002060008373ffffffffffffffffffffffffffffffffffffffff1673ffffffffffffffffffffffffffffffffffffffff16815260200190815260200160002054905092915050565b610a1d610b0d565b73ffffffffffffffffffffffffffffffffffffffff16610a3b6107c9565b73ffffffffffffffffffffffffffffffffffffffff1614610a91576040517f08c379a0000000000000000000000000000000000000000000000000000000008152600401610a8890611d7d565b60405180910390fd5b600073ffffffffffffffffffffffffffffffffffffffff168173ffffffffffffffffffffffffffffffffffffffff161415610b01576040517f08c379a0000000000000000000000000000000000000000000000000000000008152600401610af890611cdd565b60405180910390fd5b610b0a81610d1d565b50565b600033905090565b600073ffffffffffffffffffffffffffffffffffffffff168373ffffffffffffffffffffffffffffffffffffffff161415610b85576040517f08c379a0000000000000000000000000000000000000000000000000000000008152600401610b7c90611ddd565b60405180910390fd5b600073ffffffffffffffffffffffffffffffffffffffff168273ffffffffffffffffffffffffffffffffffffffff161415610bf5576040517f08c379a0000000000000000000000000000000000000000000000000000000008152600401610bec90611cfd565b60405180910390fd5b80603460008573ffffffffffffffffffffffffffffffffffffffff1673ffffffffffffffffffffffffffffffffffffffff16815260200190815260200160002060008473ffffffffffffffffffffffffffffffffffffffff1673ffffffffffffffffffffffffffffffffffffffff168152602001908152602001600020819055508173ffffffffffffffffffffffffffffffffffffffff168373ffffffffffffffffffffffffffffffffffffffff167f8c5be1e5ebec7d5bd14f71427d1e84f3dd0314c0f7b2291e5b200ac8c7c3b92583604051610cd39190611e3d565b60405180910390a3505050565b6000606482610cef9190611ee5565b905060008183610cff91906120e1565b9050610d0b858361111a565b610d168585836112f3565b5050505050565b6000606560009054906101000a900473ffffffffffffffffffffffffffffffffffffffff16905081606560006101000a81548173ffffffffffffffffffffffffffffffffffffffff021916908373ffffffffffffffffffffffffffffffffffffffff1602179055508173ffffffffffffffffffffffffffffffffffffffff168173ffffffffffffffffffffffffffffffffffffffff167f8be0079c531659141344cd1fd0a4f28419497f9722a3daafe3b4186f6b6457e060405160405180910390a35050565b600060019054906101000a900460ff1680610e09575060008054906101000a900460ff16155b610e48576040517f08c379a0000000000000000000000000000000000000000000000000000000008152600401610e3f90611d3d565b60405180910390fd5b60008060019054906101000a900460ff161590508015610e98576001600060016101000a81548160ff02191690831515021790555060016000806101000a81548160ff0219169083151502179055505b610ea0611577565b610eaa8383611650565b8015610ecb5760008060016101000a81548160ff0219169083151502179055505b505050565b600060019054906101000a900460ff1680610ef6575060008054906101000a900460ff16155b610f35576040517f08c379a0000000000000000000000000000000000000000000000000000000008152600401610f2c90611d3d565b60405180910390fd5b60008060019054906101000a900460ff161590508015610f85576001600060016101000a81548160ff02191690831515021790555060016000806101000a81548160ff0219169083151502179055505b610f8d611577565b610f95611759565b8015610fb65760008060016101000a81548160ff0219169083151502179055505b50565b600073ffffffffffffffffffffffffffffffffffffffff168273ffffffffffffffffffffffffffffffffffffffff161415611029576040517f08c379a000000000000000000000000000000000000000000000000000000000815260040161102090611e1d565b60405180910390fd5b61103560008383611842565b80603560008282546110479190611e8f565b9250508190555080603360008473ffffffffffffffffffffffffffffffffffffffff1673ffffffffffffffffffffffffffffffffffffffff168152602001908152602001600020600082825461109d9190611e8f565b925050819055508173ffffffffffffffffffffffffffffffffffffffff16600073ffffffffffffffffffffffffffffffffffffffff167fddf252ad1be2c89b69c2b068fc378daa952ba7f163c4a11628f55a4df523b3ef836040516111029190611e3d565b60405180910390a361111660008383611847565b5050565b600073ffffffffffffffffffffffffffffffffffffffff168273ffffffffffffffffffffffffffffffffffffffff16141561118a576040517f08c379a000000000000000000000000000000000000000000000000000000000815260040161118190611d9d565b60405180910390fd5b61119682600083611842565b6000603360008473ffffffffffffffffffffffffffffffffffffffff1673ffffffffffffffffffffffffffffffffffffffff1681526020019081526020016000205490508181101561121d576040517f08c379a000000000000000000000000000000000000000000000000000000000815260040161121490611cbd565b60405180910390fd5b818103603360008573ffffffffffffffffffffffffffffffffffffffff1673ffffffffffffffffffffffffffffffffffffffff16815260200190815260200160002081905550816035600082825461127591906120e1565b92505081905550600073ffffffffffffffffffffffffffffffffffffffff168373ffffffffffffffffffffffffffffffffffffffff167fddf252ad1be2c89b69c2b068fc378daa952ba7f163c4a11628f55a4df523b3ef846040516112da9190611e3d565b60405180910390a36112ee83600084611847565b505050565b600073ffffffffffffffffffffffffffffffffffffffff168373ffffffffffffffffffffffffffffffffffffffff161415611363576040517f08c379a000000000000000000000000000000000000000000000000000000000815260040161135a90611dbd565b60405180910390fd5b600073ffffffffffffffffffffffffffffffffffffffff168273ffffffffffffffffffffffffffffffffffffffff1614156113d3576040517f08c379a00000000000000000000000000000000000000000000000000000000081526004016113ca90611c9d565b60405180910390fd5b6113de838383611842565b6000603360008573ffffffffffffffffffffffffffffffffffffffff1673ffffffffffffffffffffffffffffffffffffffff16815260200190815260200160002054905081811015611465576040517f08c379a000000000000000000000000000000000000000000000000000000000815260040161145c90611d1d565b60405180910390fd5b818103603360008673ffffffffffffffffffffffffffffffffffffffff1673ffffffffffffffffffffffffffffffffffffffff1681526020019081526020016000208190555081603360008573ffffffffffffffffffffffffffffffffffffffff1673ffffffffffffffffffffffffffffffffffffffff16815260200190815260200160002060008282546114fa9190611e8f565b925050819055508273ffffffffffffffffffffffffffffffffffffffff168473ffffffffffffffffffffffffffffffffffffffff167fddf252ad1be2c89b69c2b068fc378daa952ba7f163c4a11628f55a4df523b3ef8460405161155e9190611e3d565b60405180910390a3611571848484611847565b50505050565b600060019054906101000a900460ff168061159d575060008054906101000a900460ff16155b6115dc576040517f08c379a00000000000000000000000000000000000000000000000000000000081526004016115d390611d3d565b60405180910390fd5b60008060019054906101000a900460ff16159050801561162c576001600060016101000a81548160ff02191690831515021790555060016000806101000a81548160ff0219169083151502179055505b801561164d5760008060016101000a81548160ff0219169083151502179055505b50565b600060019054906101000a900460ff1680611676575060008054906101000a900460ff16155b6116b5576040517f08c379a00000000000000000000000000000000000000000000000000000000081526004016116ac90611d3d565b60405180910390fd5b60008060019054906101000a900460ff161590508015611705576001600060016101000a81548160ff02191690831515021790555060016000806101000a81548160ff0219169083151502179055505b826036908051906020019061171b92919061184c565b50816037908051906020019061173292919061184c565b5080156117545760008060016101000a81548160ff0219169083151502179055505b505050565b600060019054906101000a900460ff168061177f575060008054906101000a900460ff16155b6117be576040517f08c379a00000000000000000000000000000000000000000000000000000000081526004016117b590611d3d565b60405180910390fd5b60008060019054906101000a900460ff16159050801561180e576001600060016101000a81548160ff02191690831515021790555060016000806101000a81548160ff0219169083151502179055505b61181e611819610b0d565b610d1d565b801561183f5760008060016101000a81548160ff0219169083151502179055505b50565b505050565b505050565b8280546118589061219d565b90600052602060002090601f01602090048101928261187a57600085556118c1565b82601f1061189357805160ff19168380011785556118c1565b828001600101855582156118c1579182015b828111156118c05782518255916020019190600101906118a5565b5b5090506118ce91906118d2565b5090565b5b808211156118eb5760008160009055506001016118d3565b5090565b6000813590506118fe81612631565b92915050565b60008135905061191381612648565b92915050565b60006020828403121561192b57600080fd5b6000611939848285016118ef565b91505092915050565b6000806040838503121561195557600080fd5b6000611963858286016118ef565b9250506020611974858286016118ef565b9150509250929050565b60008060006060848603121561199357600080fd5b60006119a1868287016118ef565b93505060206119b2868287016118ef565b92505060406119c386828701611904565b9150509250925092565b600080604083850312156119e057600080fd5b60006119ee858286016118ef565b92505060206119ff85828601611904565b9150509250929050565b611a1281612115565b82525050565b611a2181612127565b82525050565b6000611a3282611e73565b611a3c8185611e7e565b9350611a4c81856020860161216a565b611a558161225c565b840191505092915050565b6000611a6d602383611e7e565b9150611a788261227a565b604082019050919050565b6000611a90602283611e7e565b9150611a9b826122c9565b604082019050919050565b6000611ab3602683611e7e565b9150611abe82612318565b604082019050919050565b6000611ad6602283611e7e565b9150611ae182612367565b604082019050919050565b6000611af9602683611e7e565b9150611b04826123b6565b604082019050919050565b6000611b1c602e83611e7e565b9150611b2782612405565b604082019050919050565b6000611b3f602883611e7e565b9150611b4a82612454565b604082019050919050565b6000611b62602083611e7e565b9150611b6d826124a3565b602082019050919050565b6000611b85602183611e7e565b9150611b90826124cc565b604082019050919050565b6000611ba8602583611e7e565b9150611bb38261251b565b604082019050919050565b6000611bcb602483611e7e565b9150611bd68261256a565b604082019050919050565b6000611bee602583611e7e565b9150611bf9826125b9565b604082019050919050565b6000611c11601f83611e7e565b9150611c1c82612608565b602082019050919050565b611c3081612153565b82525050565b611c3f8161215d565b82525050565b6000602082019050611c5a6000830184611a09565b92915050565b6000602082019050611c756000830184611a18565b92915050565b60006020820190508181036000830152611c958184611a27565b905092915050565b60006020820190508181036000830152611cb681611a60565b9050919050565b60006020820190508181036000830152611cd681611a83565b9050919050565b60006020820190508181036000830152611cf681611aa6565b9050919050565b60006020820190508181036000830152611d1681611ac9565b9050919050565b60006020820190508181036000830152611d3681611aec565b9050919050565b60006020820190508181036000830152611d5681611b0f565b9050919050565b60006020820190508181036000830152611d7681611b32565b9050919050565b60006020820190508181036000830152611d9681611b55565b9050919050565b60006020820190508181036000830152611db681611b78565b9050919050565b60006020820190508181036000830152611dd681611b9b565b9050919050565b60006020820190508181036000830152611df681611bbe565b9050919050565b60006020820190508181036000830152611e1681611be1565b9050919050565b60006020820190508181036000830152611e3681611c04565b9050919050565b6000602082019050611e526000830184611c27565b92915050565b6000602082019050611e6d6000830184611c36565b92915050565b600081519050919050565b600082825260208201905092915050565b6000611e9a82612153565b9150611ea583612153565b9250827fffffffffffffffffffffffffffffffffffffffffffffffffffffffffffffffff03821115611eda57611ed96121cf565b5b828201905092915050565b6000611ef082612153565b9150611efb83612153565b925082611f0b57611f0a6121fe565b5b828204905092915050565b6000808291508390505b6001851115611f6057808604811115611f3c57611f3b6121cf565b5b6001851615611f4b5780820291505b8081029050611f598561226d565b9450611f20565b94509492505050565b6000611f7482612153565b9150611f7f8361215d565b9250611fac7fffffffffffffffffffffffffffffffffffffffffffffffffffffffffffffffff8484611fb4565b905092915050565b600082611fc45760019050612080565b81611fd25760009050612080565b8160018114611fe85760028114611ff257612021565b6001915050612080565b60ff841115612004576120036121cf565b5b8360020a91508482111561201b5761201a6121cf565b5b50612080565b5060208310610133831016604e8410600b84101617156120565782820a905083811115612051576120506121cf565b5b612080565b6120638484846001611f16565b9250905081840481111561207a576120796121cf565b5b81810290505b9392505050565b600061209282612153565b915061209d83612153565b9250817fffffffffffffffffffffffffffffffffffffffffffffffffffffffffffffffff04831182151516156120d6576120d56121cf565b5b828202905092915050565b60006120ec82612153565b91506120f783612153565b92508282101561210a576121096121cf565b5b828203905092915050565b600061212082612133565b9050919050565b60008115159050919050565b600073ffffffffffffffffffffffffffffffffffffffff82169050919050565b6000819050919050565b600060ff82169050919050565b60005b8381101561218857808201518184015260208101905061216d565b83811115612197576000848401525b50505050565b600060028204905060018216806121b557607f821691505b602082108114156121c9576121c861222d565b5b50919050565b7f4e487b7100000000000000000000000000000000000000000000000000000000600052601160045260246000fd5b7f4e487b7100000000000000000000000000000000000000000000000000000000600052601260045260246000fd5b7f4e487b7100000000000000000000000000000000000000000000000000000000600052602260045260246000fd5b6000601f19601f8301169050919050565b60008160011c9050919050565b7f45524332303a207472616e7366657220746f20746865207a65726f206164647260008201527f6573730000000000000000000000000000000000000000000000000000000000602082015250565b7f45524332303a206275726e20616d6f756e7420657863656564732062616c616e60008201527f6365000000000000000000000000000000000000000000000000000000000000602082015250565b7f4f776e61626c653a206e6577206f776e657220697320746865207a65726f206160008201527f6464726573730000000000000000000000000000000000000000000000000000602082015250565b7f45524332303a20617070726f766520746f20746865207a65726f20616464726560008201527f7373000000000000000000000000000000000000000000000000000000000000602082015250565b7f45524332303a207472616e7366657220616d6f756e742065786365656473206260008201527f616c616e63650000000000000000000000000000000000000000000000000000602082015250565b7f496e697469616c697a61626c653a20636f6e747261637420697320616c72656160008201527f647920696e697469616c697a6564000000000000000000000000000000000000602082015250565b7f45524332303a207472616e7366657220616d6f756e742065786365656473206160008201527f6c6c6f77616e6365000000000000000000000000000000000000000000000000602082015250565b7f4f776e61626c653a2063616c6c6572206973206e6f7420746865206f776e6572600082015250565b7f45524332303a206275726e2066726f6d20746865207a65726f2061646472657360008201527f7300000000000000000000000000000000000000000000000000000000000000602082015250565b7f45524332303a207472616e736665722066726f6d20746865207a65726f20616460008201527f6472657373000000000000000000000000000000000000000000000000000000602082015250565b7f45524332303a20617070726f76652066726f6d20746865207a65726f2061646460008201527f7265737300000000000000000000000000000000000000000000000000000000602082015250565b7f45524332303a2064656372656173656420616c6c6f77616e63652062656c6f7760008201527f207a65726f000000000000000000000000000000000000000000000000000000602082015250565b7f45524332303a206d696e7420746f20746865207a65726f206164647265737300600082015250565b61263a81612115565b811461264557600080fd5b50565b61265181612153565b811461265c57600080fd5b5056fea264697066735822122086f8ef70bd922adabd1e5d0319be7026c655f3bb9a35ddd2ee217936e873b2b064736f6c63430008040033",
  "linkReferences": {},
  "deployedLinkReferences": {}
}